:020000041000EA
:1000000000B5324B212058609868022188439860DF
:10001000D860186158612E4B002199600221596106
:100020000121F02299502B49196001219960352056
:1000300000F044F80222904214D00621196600F024
:1000400034F8196E01211966002018661A6600F04E
:100050002CF8196E196E196E052000F02FF8012189
:100060000842F9D1002199601B49196000215960AB
:100070001A491B48016001219960EB211966A021F2
:10008000196600F012F800219960164914480160C1
:100090000121996001BC002800D000471248134993
:1000A000086003C880F30888084703B5996A0420EC
:1000B0000142FBD001200142F8D103BD02B5186610
:1000C0001866FFF7F2FF186E186E02BD00000240BE
:1000D000000000180000070000035F00212200005C
:1000E000F4000018222000A00001001008ED00E03C
:1000F00000000000000000000000000074B24E7A12
:1001000000200420F7010010C3010010C5010010F9
:10011000C1010010C1010010C1010010C101001097
:10012000C1010010C1010010C1010010C701001081
:10013000C1010010C1010010C9010010CB01001065
:10014000CD010010CD010010CD010010CD01001037
:10015000CD010010CD010010CD010010CD01001027
:10016000CD010010CD010010CD010010CD01001017
:10017000CD010010CD010010CD010010CD01001007
:10018000CD010010CD010010CD010010CD010010F7
:10019000CD010010CD010010CD010010CD010010E7
:1001A000CD010010CD010010CD010010CD010010D7
:1001B000CD010010CD010010CD010010CD010010C7
:1001C00000BE00BE00BE00BE00BE00BEEFF3058054
:1001D000103800BEF2EB8871302600105026001057
:1001E0003802001090A31AE71E481F49086006C88D
:1001F00081F3088810471D480068002801D019487D
:10020000F3E70DA40ECC002902D000F012F8F9E7B4
:100210001749184A002000E001C19142FCD116495B
:100220008847164988471649884700BEFDE701C937
:1002300001C29A42FBD3704750260010C000002034
:1002400018060020A82B0010000004200000042045
:10025000A82B001000100420001004200000000053
:10026000704700000000000008ED00E0000000D032
:1002700018060020540A0020551F00101104001019
:100280004D1F0010F8B5C04606480749091A8B10E3
:10029000C90FC91810B5491003D0044B002B00D06A
:1002A000984710BD18060020180600200000000026
:1002B000054B10B5002B03D00449054800E000BFF2
:1002C000FFF7E2FF10BDC046000000001409002047
:1002D000202500100022034B01201A70024B1A70D7
:1002E0007047C046500A0020510A0020D0218020CB
:1002F000064A090613788001002B05D048610121C8
:100300004B400120137070478861F8E7520A0020C3
:10031000F8B5052806D0062803D12A4B1A78002AFA
:100320002AD0F8BD284B1A78002AFAD1274C01327E
:100330001A7020680A21013001F098FC64272160BE
:1003400023685F43224BFF183E0064363500143E9D
:10035000340005E01F48043400F030F9AC4208D006
:100360002368002BF6D10020043400F027F9AC42BA
:10037000F6D1B742EAD1D4E7144C01321A702068A2
:100380000A21093001F072FC6427216023685F4371
:100390000F4BFF183E0064363500143E340005E074
:1003A0000C48043400F00AF9AC4208D02368002B52
:1003B000F6D10020043400F001F9AC42F6D1B74286
:1003C000EAD1AEE7510A0020500A002010090020AF
:1003D00098010020FFFFFF00F8B506000700643613
:1003E0003500143E340005E00848043400F0E6F817
:1003F000AC4208D02368002BF6D10020043400F072
:10040000DDF8AC42F6D1B742EAD1F8BDFFFFFF00FC
:1004100010B584B001F086FE072000F05BF80D20D7
:1004200000F0B0FAD024802324069B0163620520EB
:1004300000F0A8FA20230022A3620121052000F089
:1004400025FA062000F09EFA40230022A362012133
:10045000062000F01BFA164C01222300042105207F
:1004600000F028FA2300002404210122062000F0D5
:1004700021FA00F0D1FF0F4B0F4A02930F4B01946A
:100480000093002301F0CEF800F0C6FF0C4B0D4A9C
:1004900002930D4B01940093002301F0C3F86420F4
:1004A0000A4B1B6858430A4BC018FFF795FFFEE73D
:1004B000110300101806002050C30000D5020010E0
:1004C000B0070020A0860100ED02001010090020F6
:1004D00098010020F0B5C64600B5314D86B0040045
:1004E0003049286801F08AFE2F4B2D681F682F4B7A
:1004F0000600E918090D06312000C9B200F0ACF978
:100500000123390022000093280001F0F9FE802326
:100510005B020293F31CF2011B031343244AA4025F
:1005200013400393F823DB011C4080239B052343E6
:100530000593204B0520049301F012FA01F074FC9E
:100540001D4901F056FCEC21890501F04FFC804665
:1005500001F092FC84B20023002C0ED0200001F0A8
:1005600063FC011C404601F03EFC8721C90501F0F7
:1005700054FC01F081FCC3B21B02240432001C4372
:10058000390002AB2800029401F014FF0123BB40A4
:100590002A6813432B6006B080BCB846F0BDC04645
:1005A00080050020202500104C0A00200000E0AF4C
:1005B000FFFFFF9F000006700024F44A074B10B5B0
:1005C0001968074B01221C68230010339A404B68BE
:1005D0001A42FCD10434A400605010BD80050020F4
:1005E0004C0A0020D0231B061B68974A9900F0B5DF
:1005F0004E46894651585A4253412F225746454646
:10060000DE465B4293439846904BE0B59C4683B0F0
:1006100000270191E044002939D08D4B0F269B46DD
:100620004246FB0808339B009C5801233D009A4634
:100630000837002C22D031002140264218D05B46DA
:100640004A469A582B00EA40203BDB17134052469B
:1006500013420DD1072208002A4092009040020068
:10066000EB087C483C339B001A502800019B9847BC
:1006700024090135002C01D0BD42DCD3202FCFD17D
:1006800003B0F0BCBB46B246A946A046F0BD704BD5
:1006900000200F229B46C6083300414608339B00CA
:1006A0005B5801000830002B00D1B2E017001F405A
:1006B000BC461A420FD04C465D460F002C59203FD5
:1006C000CC40FF1727400124274204D16446614FE4
:1006D0003C36B600F4511E0900D19AE017003740AD
:1006E000324213D04C1CA4465D464C462C596546FC
:1006F0000E00EC401F3EF61726400124264205D18D
:10070000EE08544C3C363F01B60037511E0A00D16A
:100710007FE017003740324213D08C1CA4465D4660
:100720004C462C5965460E00EC401E3EF6172640FE
:100730000124264205D1EE08464C3C363F02B60065
:1007400037511E0B65D01700374032420DD0CC1CFC
:10075000A4465D464C462C5965460E00EC401D3EB5
:10076000F61726400124264257D01E0C51D0140003
:100770003440A44632420BD04C46354E0F1D3659FC
:10078000FE40B2460E0054461C3EF60F26424BD0A9
:100790001E0D3ED014003440A44632420BD04C46CD
:1007A0002B4E4F1D3659FE40B2460E0054461B3E9E
:1007B000F60F264240D01E0E2BD014003440A44623
:1007C000324212D04C46224E8F1D3659FE40B24660
:1007D0000E0054461A3EF60F264206D16446FE0825
:1007E0003C3627061B4CB60037511B0FCF1D002B84
:1007F0000FD04C465D462E590124FE401939C917C9
:100800003140214205D1F908124E3C311B078900C5
:100810008B51202800D03EE732E7EE080D4C3C36E5
:100820003F03B6003751A0E76446FF083C37BE00DF
:10083000084F2404F451ABE76446FE083C36270514
:10084000044CB6003751B6E7D008002030410140D3
:100850003C09002000400140094A83009A1810B565
:1008600014684022544080322240064CC000A44606
:1008700063441A60044B9C466044416010BDC0460E
:1008800004C0014004D0014000400140074B8000FB
:10089000C3181B68C90092000A435A400C23134036
:1008A000034A9446604403607047C04604C0014058
:1008B00004D00140F8B545469846D0231B06DE46D5
:1008C0001C689B462B4B57469A46A3004E469946BA
:1008D000E0B5534616004A469B5807000D00002B12
:1008E00034D04346002B3FD053464A4641469950A8
:1008F000D0231B061C6863425C412F220720634201
:1009000093431D4A38409446FA0811008000854000
:100910003C311A486344890092000D509B18002E08
:100920000ED0802292019446634401210D201D6067
:1009300000F0C4F8F0BCBB46B246A946A046F8BDDC
:10094000C0229201944663441D60F3E74346002BA6
:10095000D1D0534641460D2099500022084900F05D
:10096000E9F85B461C68C6E70D20054900F0DCF994
:10097000BAE7C046D00800203041014000400140A5
:10098000E50500100123D022834012069362936193
:10099000094A83009A1811684022514080320A4067
:1009A0000649C0008C4663441A60054B9C460523EB
:1009B000604443607047C04604C0014004D0014019
:1009C000004001400FB400B5084883B001F0F8FBC7
:1009D000049B002B07D005A91800019101F09CFA97
:1009E000034801F0EDFB012001F0AEFA30250010C4
:1009F00040250010EFF3108072B6034A1368002BF5
:100A0000FCD0BFF35F8F70472C0100D0BFF35F8F26
:100A10000022024B1A6080F3108870472C0100D02E
:100A200070B5EFF3108C72B60D4D2B68002BFCD017
:100A3000BFF35F8F0724CB08C618C05C01230C40AE
:100A4000A3401C000440034207D118433070BFF399
:100A50005F8F2C608CF3108870BD1000FFF7B2FF21
:100A60002C0100D0044A1078431CDBB2172B00D9AC
:100A7000102313707047C046840500200021044BEA
:100A8000044ABFF35F8F02C39342FAD17047C04656
:100A9000000100D0800100D0054B064A1360064AD1
:100AA000136053609360D360136153619361704727
:100AB0008080808000E400E004E400E01F23184010
:100AC0001E3B8340002905D0C021044A49005350F1
:100AD00013607047802201498B50FAE700E100E083
:100AE00070B50D00EFF3108672B60F4A1368002B35
:100AF000FCD0BFF35F8F0D4B10309B6884001B59F7
:100B00000B4A934203D09D4201D000F0D1FF074B26
:100B10009B681D51BFF35F8FBFF35F8F0022024BB5
:100B20001A6086F3108870BD240100D000ED00E04B
:100B3000CD010010F0B557464E46DE464546E0B5BD
:100B400085B0060000911700EFF3108B72B66A4A69
:100B50001368002BFCD0BFF35F8F0025674B5D57F8
:100B60009A46002D00DAA9E06B00654C01935B19F1
:100B70009B009846A146C1444B4652469B7910368D
:100B80001370604BB6009B6899590B1B2F2B33D900
:100B90005D4B994200D0ACE0019B42469C465B4BCA
:100BA0006544AD0063535A4B0232A218043B9B1AB2
:100BB0001B05584A5B0D651913436B80564B012189
:100BC000AB80FF23AB71009BEF71AB604B460B43D7
:100BD00019004C4B9B689951BFF35F8FBFF35F8F38
:100BE0000022454B1A608BF3108805B0F0BCBB4661
:100BF000B246A946A046F0BD01200A008243D3793F
:100C00008C46BB4231D84546130044491B1B5B410F
:100C10005943090D3D4B63533D4B02356519043B68
:100C20005B1B1B053B4D5B0D2B43AA464D466B8062
:100C30000425AC465546E044131F44441B1B1B05CA
:100C40005B0D1D434B46997100999D809960494603
:100C5000DF71334B01431360BBE75800C0188000BD
:100C60002018C179B9422FD902000623D356002B90
:100C7000F3DA02932B4B61460393131D9A46042328
:100C80005B429C46E14450464B461B1A1B055B0DDC
:100C90009C46204B9571984663464046034393809B
:100CA000019B5A199200039BA418A380029B1C4A23
:100CB000A371009B2260E771A3608AE700F0F8FE51
:100CC000002553465D574FE7908802934005131D5A
:100CD0009A46031561469C464046D4446346043018
:100CE0002018181AE0230005400D1B02184303903A
:100CF000C5E700F0DDFE4FE7240100D0530A0020D5
:100D00008805002000ED00E0CD01001000A1FFFFEC
:100D1000B805002000E0FFFF01BDFFFFAAAA000008
:100D20000148804701BD0000F0B5DE4657464E46FB
:100D30004546E0B50C0083B0EFF3108872B6634A05
:100D40001368002BFCD0BFF35F8F614B61499A6839
:100D5000030010339F00D55900938D4243D0A54224
:100D600054D05D4EAA1B2F2A3DD85C4B9C461B6875
:100D70009A4601231A0099468240534613401F2287
:100D800001934B46024093409A4680226346504668
:100D90009850BFF35F8FEFF305839B46002B37D04E
:100DA000009B5B4501D000F083FE2A004B469A432E
:100DB0009068844208D177E04B005B189B00F318E1
:100DC0009868844236D01A00062151560029F3DA79
:100DD000844255D0019B002B27D0C02251463F4B67
:100DE0005200995019603A4B9B68DD51BFF35F8FF9
:100DF000BFF35F8F0022354B1A6088F3108803B071
:100E0000F0BCBB46B246A946A046F0BD0D00EAE7DD
:100E10002A004B469A4390688442D5D1062010564A
:100E2000130000280ADA0D0032E0802351462B4AD5
:100E3000D150D8E706201856002822DB42001118AE
:100E4000890074188946A1689960E179D9710621F1
:100E500061569971002925DBA488F11A64052415CF
:100E60004C440919E0240905490D240221439980C5
:100E700013181B4A9B001178F31899711070A9E799
:100E800013005946002914D1FF3191711549918001
:100E900013490A789A71144A9B1B5B415A43120DFD
:100EA0000A7097E71149E2E7062010561300002860
:100EB000C4DA0F4A0F49D21A083A5002400D0143D2
:100EC00099800D4952080A43DA8083E7240100D053
:100ED00000ED00E0CD0100108805002000E100E0F9
:100EE000530A002001BDFFFFAAAA000001BD0000B7
:100EF000C205002000F0FFFF00F8FFFF70B50124DD
:100F00000443EFF30581EFF3108C72B6214A1368A6
:100F1000002BFCD0BFF35F8F1F4B05001F4AED1A5B
:100F20006D416A43120D1E4D8900AE6852B276586B
:100F3000A6421CD00621595691421CD01221595666
:100F4000914222D01E215956914220D02A21595631
:100F50000324914210D0134B19781A708171BFF39A
:100F60005F8F00220B4B1A608CF3108870BDAB684A
:100F70000D4C5C50EFE700246100091989005B18F3
:100F8000FF21997109499980E5E70124F4E70224DA
:100F9000F2E7C046240100D088050020AAAA00007C
:100FA00000ED00E0530A0020CD01001001BDFFFF5D
:100FB000024B9C4661448900016070474000003448
:100FC00070B5114C114DAC420FD2FF262368002B97
:100FD0000CD0FFF747FD01002000FFF7E9FFA680D6
:100FE000BFF35F8F0834AC42F0D370BDFFF73AFD1A
:100FF00001002000FFF7DCFF2671BFF35F8F08348C
:10100000AC42E3D3F1E7C0461006002018060020EA
:101010000A4B1968EFF3108072B60A68002AFCD0F8
:10102000BFF35F8F1B68BFF35F8F00221A6080F3EE
:10103000108840BF002000217047C046480A0020A9
:10104000F0B5DE4657464E464546E0B583B0EFF371
:10105000058203231340B54A9900525800919046E7
:1010600001229A40B24B93461A60B24B01932EE094
:1010700043469B881BB2002B00DB99E043469B79DB
:10108000002B00D0DDE0434608241C5F002C00DA72
:1010900006E143465A6963001B19DB00D3189D68BB
:1010A000DC686B1C00D107E1A34B00999C466144AE
:1010B0009A6A0B69A81A9B1A984200D20D619E4841
:1010C00000F04EFB8C4200DDEAE000D126E15B46F9
:1010D00099484363434608229B5E9946002BC7DB31
:1010E000424652695B0092464B44DB009A445346A9
:1010F0009E68DF6800F034FB8F42B9DC00D100E16C
:10110000002F00DAE1E05246534654691B69019A08
:10111000934200D1D4E0414652460820085E5288EE
:10112000000421001043984704000D0023002B43C6
:1011300000D1CAE0002D00DBE7E030003900001BE1
:10114000A94153469860D96000229A5E002A8FDB3D
:1011500043465D6953009C18E4002C19A768E468B5
:101160008C4200DD84E702D1874200D980E7464601
:10117000328108360DE08C4200D1D3E01E000023FE
:10118000F25E002A0ADB53009C18E4002C19A768C1
:10119000E4689B18DB00EB188C42ECDD53461A80A8
:1011A0004B46338043469B881BB2002B00DA65E731
:1011B00043461A69EFF3108172B61368002BFCD016
:1011C000BFF35F8F43469E88012342465B42938074
:1011D00036B21369BFF35F8F00221A6081F3108863
:1011E000002E00DA4AE743465D69083342469C46D2
:1011F0007700BF19FF00EF19BB68604698460823C7
:10120000D15E9246FC68002907DA0EE0A2424FD078
:1012100018000023C15E002906DB4B005B18DB00D1
:10122000EB18DA68A242F1DD524606800023FE5E2A
:101230003980002EDCDA904643469B79002B00D1A2
:1012400021E7002342469371434646460821595EF2
:1012500008364B1C24D047468946556902E00600F3
:101260004B1C18D04B005B18DB00E8180A008C46BA
:10127000E95E43881BB2002BF1DA01235B42DC17E5
:101280008360C4604A4503D031803B8903803A8142
:10129000E1464B1CE6D14C46B846002C00DBF8E694
:1012A00040BF03B0F0BCBB46B246A946A046F0BD65
:1012B0009A684245ACD9B7E7631C00D0F4E6FEE675
:1012C000200023699847002825D1534642461B88B1
:1012D00013811269EFF3108372B611680029FCD0F4
:1012E000BFF35F8F4246514652880A8042464946C4
:1012F00051801269BFF35F8F0021116083F3108862
:10130000B6E6864200D8FBE6B2E60B4800F028FAC3
:101310000019694115E76568246807E7854200D828
:10132000D5E6BDE7874200D828E737E72C0900203B
:101330003C700540411000100040054070B52E4C37
:101340002569002D04D00A212C48FFF731FE70BD1D
:101350002B4E0321300000F0F9F9E660FFF782FB25
:10136000284B03229C46D02322701B061B680121B8
:101370006370254B6044A3600F238000206102202E
:10138000638063694942A18019800231198647311F
:101390001D83585218315A5275325C39995218329D
:1013A0000131995218320131995218320131995252
:1013B000083518329D5202311832995218320131D3
:1013C000995218320131995218320131995218321A
:1013D000013199521832013199520C4B0C49DC60A1
:1013E00001303562FFF77CFB01210320FFF766FB2C
:1013F000084B1D60A7E7C046D0050020480A002022
:101400000040054040000034FFFF10002C09002080
:10141000411000103860054000487047D00500209A
:1014200070B501000469EFF3108C72B620680028D3
:10143000FCD0BFF35F8F02200D5E4C69680040193D
:10144000C0002418002D37DB208848800869BFF3CE
:101450005F8F002606608CF31088E3606388049831
:10146000013320615B0405985B0CA26060611A1C6B
:10147000002B1FD093B22804628018430A69EFF34F
:10148000108C72B61368002BFCD0BFF35F8F8B8873
:1014900023808D800B69BFF35F8F00221A608CF36D
:1014A00010880B7801329A40CB6808498C46634417
:1014B0001A6070BD0122DDE70B69BFF35F8F002268
:1014C0001A608CF3108801204042F2E73C200000B3
:1014D00010B543890A1493421ADD53009B184269E0
:1014E000DB00D3180469EFF3108C72B62268002A6F
:1014F000FCD0BFF35F8F5A88090494B2090C8A426A
:1015000008D00369BFF35F8F00221A608CF3108844
:10151000002010BD8022120214435C800123026966
:101520008371BFF35F8F002111608CF31088044931
:1015300002788C469340C268012062441360E8E759
:101540003C200000F0B5CE46474680B504000D00B3
:1015500083B0EFF305878846002F3ED12E4EA1467B
:101560003378F06804339B00816A1B58601A5B1A59
:1015700098420ED320BF294900204B6AAB4203D3C7
:101580008A6A0130944231D803B0C0BCB946B04633
:10159000F0BD00F0EDF822002B00121A8B41002B59
:1015A0002FDB1F4B2200009330002B000197FFF729
:1015B00037FF011E25DD194B5A6AAA421BD220BFF4
:1015C0003000FFF785FF154A0020536A4345DBD3FF
:1015D000926A01309145D7D908E0104900204B6A42
:1015E000AB42D1D38A6A0130A242CDD25B1B5A1ED4
:1015F0009341D8B2C8E79B6A9C42E1D9AA42DFD1A5
:10160000DDE7064A0020536A4345BDD3926A0120B4
:101610009145B9D9EAE7C046D00500200040054011
:1016200011100010F0B5CE464746110080B583B0CA
:1016300004009C460C9D194300D16EE06146DB1707
:101640000193009353401E00019B4B401F000098E4
:101650000199361A8F4163460A996B600B9BAC6007
:101660006B6129612A6000F083F880238019794139
:101670001B06994202D30120314940422269EFF30F
:10168000108972B61368002BFCD0BFF35F8F022362
:10169000E65E636972009219D2009B18002E44DB4B
:1016A0001A88628022699046BFF35F8F0022474606
:1016B0003A6089F31088234A9860D9601A615A8881
:1016C0005D6101325204520C111C002A2BD088B2E9
:1016D0003204024359802069EFF3108772B6016823
:1016E0000029FCD0BFF35F8FA1881980A6802369F1
:1016F000BFF35F8F0021196087F3108812482378A9
:101700008446013199400120E36863441960EA602E
:1017100003B0C0BCB946B046F0BD00230126002787
:1017200001229C4697E70121D1E72369BFF35F8F30
:1017300000221A6089F310880020013AE7E7C046CA
:10174000FFFFFF7F411000103C20000010B5024A4F
:101750000248FFF765F910BD44250010D8080020A5
:101760000300416A0A00986A596A8A42FAD17047AE
:10177000034B596A0A00986A596A9142FAD1704734
:1017800000400540F8B5DE464E4657464546E0B5B2
:101790008B4605000A991800160000F08FFA0A9B84
:1017A0006C001F02324B64199C46A40064446368B9
:1017B00081469F4200D967602B1FDBB29846012B00
:1017C00030D9C02380229B01E31812011A60294BF3
:1017D000AD0059599A4600291BD17301E0262268B1
:1017E00053401E40802342465B01E3181E60012ADD
:1017F00030D9802380229B01E31812011A605346DE
:101800004A4667605A51F0BCBB46B246A946A0465C
:10181000F8BD586900F052FA013043001B18033B31
:10182000FDD2DAE75B46012BCBD1C02303229B011B
:10183000E3181A60023AA3681A42FCD07301E0264A
:101840002268AD0053401E4080230A4A5B01924645
:10185000E3181E605A462168514003220A401A606C
:1018600001225B469A40A3681A42FCD0C1E7C046F9
:1018700000800040DC080020F0B546464F46D646C2
:10188000C0B51F00344B44009C462418A400644497
:10189000636888461600FF2B02D880235B006360D4
:1018A000031FDBB29A46012B30D9C02380229B0153
:1018B000E31812011A60294B8500595999460029ED
:1018C0001BD17301E026226853401E4080235246FC
:1018D0005B01E3181E60012A30D9802380229B011E
:1018E000E31812011A6080235B0063604B465F516E
:1018F000E0BCBA46B146A846F0BD586900F0DEF932
:10190000013043001B18033BFDD2DAE74346012BAD
:10191000CBD1C02303229B01E3181A60023AA368CB
:101920001A42FCD07301E0262268850053401E4015
:1019300080230A4A5B019146E3181E6042462168F3
:10194000514003220A401A60012342469340A26894
:101950001342FCD0C1E7C04600800040DC080020F4
:10196000014B8000C0587047DC080020F8B5040027
:1019700021481E0017000D0000F0A0F901003800FA
:1019800000F09CF9069B36041B031E432368002BC2
:1019900020DB1A4B1A49E3185A1E93418022920108
:1019A00094465B421B0B174A1B0363441360164AA1
:1019B00013601F000A689743FBD1144B2560E2189F
:1019C0002123A06013602368002BFCDA0823E66063
:1019D0001360F8BD3F2322681340AB42D9D1A368FE
:1019E0001B051B0D8342D4D1EE22E368D2021340C3
:1019F000B342CED1EDE7C046001BB7000040FDBFAB
:101A000008C0004000E0004000F00040043000004A
:101A10008023024A9B000B43D3627047008005403D
:101A2000142310B50100188804331B88984710BD93
:101A3000162310B50100188802331B88984710BD83
:101A4000F8B54746CE4680B50F1E19D014239946E7
:101A5000043304000025012698464B461888434667
:101A600021681B88984701C4431E984101354042B4
:101A70000640AF42F1D13000C0BCB946B046F8BD17
:101A80000126F8E7AA23064A1B0113602F23054904
:101A9000D360054B19605368002BFCDA7047C046D1
:101AA0000040024000B0FA00006002407047C046AB
:101AB00010B50148FEF786FF6825001070B5074D88
:101AC000074EB54209D20024013E761BB60808CD68
:101AD000984723000134B342F9D170BDE0240010CF
:101AE0001C250010054B064A06491A60064A074B9A
:101AF0001A6010000B689843FBD1704700E000406B
:101B0000BFCDFBFE08C00040FE7F3C0000F000405F
:101B1000044BDB6C002B03D18022034BD2021A60F2
:101B20007047C046000011504C201150044A054B2C
:101B30001A60054A1368DB018033FBD17047C04649
:101B4000FFFFFF0100F0004008C000404022034BAF
:101B50009A675A671A67DA667047C04600F0014014
:101B600010B5FEF78BFF10BD70B5044D044CA9688D
:101B7000C022200000F0C2F9AC6070BD00ED00E0B2
:101B800000000020002310B5294C82B0A367FFF7A6
:101B900079FF0122274B1A60636C012BFCD10322D1
:101BA000254B1A60224A936B012BFCD10133009321
:101BB0000121224A22480433FFF7D8FE05230121E0
:101BC0000093204A2048FFF7D1FE00220221042082
:101BD0001E4BFFF751FE0022012105201C4BFFF791
:101BE0004BFE0022002107201A4BFFF745FE002282
:101BF00000210820174BFFF73FFE8023DB000093F6
:101C0000002200210920134BFFF7BCFD0022104BDE
:101C100000210620FFF730FE0420FFF7A1FE0E4949
:101C200000F04CF801000020FFF7F2FE02B010BDFA
:101C3000008000403CB0004030B00040002F6859A8
:101C400000800240008C864700C00240001BB700A5
:101C500040597307006CDC0240420F000148042128
:101C6000014B1847F0050020411A0010124A936FEB
:101C70009B0815D29066D166002905D0FFE7FFE7E3
:101C8000FFE7516F106F704704B580210906C21736
:101C90005140002800D0C84300F012FC002104BDD0
:101CA000F0B5146E556E576F166FFFF7E3FF1466AD
:101CB000556657671667F0BD000000D0114A936F54
:101CC0009B0813D210665166002905D0FFE7FFE795
:101CD000FFE7516F106F704704B5002801D0002056
:101CE000C04300F0EDFB002104BDC046F0B5146E0A
:101CF000556E576F166FFFF7E5FF14665566576709
:101D00001667F0BD000000D010B50148FEF75AFE7E
:101D100074250010132370B51D78012D19D014DD22
:101D20001D48FFF785FE06001C48FFF781FE1C4C8E
:101D300080223100200000F0E1F8022D06D0194881
:101D4000FFF76EFE184B186070BD154C174BA3645F
:101D5000F5E7174B124C23606360A360E3602361D7
:101D60006361A361E36123626362A362E36223634D
:101D70006363A363E36323646364A364E36423652D
:101D80006365A365E36523666366A366E36623670D
:101D90006367A367E367D9E7534400005346000035
:101DA000C80700204C33000044090020B51D001076
:101DB000091D001007B5604601880A0A0230DF2AB3
:101DC000FAD1C9B2820804D30288408800041043C3
:101DD00000E00068014A5050039007BDC80700208A
:101DE0004840414048400E4B5B6818470C4B1B680D
:101DF00018470C4A936F9B0802D2094BDB681847BF
:101E0000F0B5146E556E576F166FFFF7F6FF054A63
:101E10001466556657671667F0BD014B9B681847F7
:101E200048090020000000D0491A002808D10846BF
:101E300070470000C10FC90700D54042002817D0E5
:101E4000F44603B40B4B1B68984706BC81409E3890
:101E50004042803107D20B0607D04900490AC0052D
:101E60001043084360470130F8E7490A8902F5E763
:101E70007047000044090020014B5B6A18470000CE
:101E80004809002010B50148FEF79CFD8C25001084
:101E9000132310B510481C78FFF7CAFD0100012C70
:101EA0000AD003DD80220D4800F028F80C48FFF727
:101EB000B7FD0C4B186010BD084C5422200000F0F8
:101EC0001DF82200084980322368002B00D12160D0
:101ED00004349442F8D1E9E7534600004809002051
:101EE0004C33000044090020851E001001480421E5
:101EF000014B184700060020411A0010014B5B6897
:101F0000184700000006002010B5002800D110BDC1
:101F100000F00AF9FBE7C04610B5094A030014684F
:101F200084B0002C08D0012200910648524203A937
:101F3000A047012004B010BD00F042F90020F9E7ED
:101F40000C090020091F001000BEFDE710B5FFF7C7
:101F5000FBFFC04670B5FFF7B1FD074D074EB54218
:101F600009D20024013E761BB60808CD984723000D
:101F70000134B342F9D170BD1C250010202500109A
:101F8000030010B5080011001B68984710BDC0463B
:101F9000F0B5C64600B5437D07000D001600002BC6
:101FA00038D0002A2EDD00216A1E90466A5C037D2F
:101FB0004C1C00200A2A0CD0A64216D043461B5DBA
:101FC00021000D3B5A4253416A5CDBB24C1C0A2A89
:101FD000F2D1002BF0D1884217DB022110483B6878
:101FE0009847A64207D02000E8E7864203DD311A71
:101FF0003B6828189847AD19013D2B780D3B5A4294
:1020000053413B7580BCB846F0BD091A3B6828189F
:102010009847E2E70368110028009847F2E7C046B6
:102020002C260010F0B5DE4657464E464546E0B534
:1020300085B017001C0006000D00FFF799FB002378
:10204000314A12184B41802109068B4202D30122EA
:102050002E4B52422E4908008A4600F039FA019070
:102060006B1C03D1300000F0F3F90500002C26D0E2
:10207000284B9846284B1C68002C15D0002F21D1E6
:10208000264F02E02469002C0ED02368002BF9D0E3
:102090003B68002B01D09C42F4D120002A00310083
:1020A000C0472469002CF0D1019B002B28D12800C7
:1020B00005B0F0BCBB46B246A946A046F0BD184BE1
:1020C0009846D7E7154B994602ABDF1D0A239B467E
:1020D00002E02469002CE7D02368002BF9D04B469E
:1020E0001B68002B01D0A342F3D12A00310020004D
:1020F000C0475B460122390020003B70C047E8E73B
:10210000504600F0D5F9D2E740420F00FFFFFF7FB5
:1021100010060020911F001004090020080900206B
:10212000811F001000207047F0B5CE46474680B5AD
:1021300083B06B460600DD1D2870FFF719FB0023F6
:102140001A4A12184B41802109068B4202D3012200
:10215000174B524217490800884600F0B9F9164B50
:1021600081461C68002C14D0144F02E02469002C16
:102170000FD02368002BF9D03B68002B01D09C4284
:10218000F4D1200001222900FFF702FF2469002C6E
:10219000EFD14B46002B05D1300003B0C0BCB9468F
:1021A000B046F0BD404600F083F9F5E740420F002D
:1021B000FFFFFF7F1006002004090020080900200F
:1021C00070B5040000F044F901230100050001226C
:1021D0002000FFF727FF084B1C68002C06D063681F
:1021E000002B05D098472469002CF8D1280070BD39
:1021F0002469002CF3D1F9E704090020F0B5574613
:10220000DE464E4645468846E0B583B006000524C6
:10221000FEF7F0FB434684461C571879364B374A85
:10222000F3181B0D9B009246D75801228240013AB9
:10223000002C42DB2021091A8C423BDC1100A1401A
:1022400025000F4236D141460968894641468979C1
:1022500000294DD1AA4093463A423FD180218901BD
:1022600000228846002816D06146A44634004E4617
:102270009946030001915100705A404500D240191F
:10228000511912318900013208519342F3D8019B50
:1022900064469C464B465A4617435246D7506046C2
:1022A000FEF7B4FB200003B0F0BCBB46B246A94623
:1022B000A046F0BD01246442F1E72024241A0DD485
:1022C0001100A14025008B46394205D109E01100DB
:1022D000A14025000F42B6D0013CF8D20924644247
:1022E000DDE742461268914642469279002AB5D00F
:1022F00014246442D3E7C0460000E0AFC8080020C1
:10230000F0B54E464546DE465746E0B583B08946B1
:102310000CA984460D781F2A45D8494649008846AD
:102320004944C900461837003400DC373868CC34DB
:1023300083462068310001901C4880248246A40214
:1023400051440C6069424D411E216D428D43184934
:102350008A465544052B0CD9A0201F214005D836AC
:10236000540104430532053B3C600A403560052BAF
:10237000F6D852019B06134342464A44D2006244B7
:102380001000DC3213600300D8331D605B4613601D
:10239000019BCC300360002003B0F0BCBB46B246CA
:1023A000A946A046F0BD05204042F5E7CC3000002C
:1023B0009FE00000F0B501258D400468AC43046047
:1023C000002B2ED04D006C18E400041926001F6865
:1023D000C83637609F68043677605F68DB68DC3436
:1023E000376023606B18184DDB00AC468025C4189D
:1023F00064442D0625602560144C0D1D8C408460BE
:1024000001242600AE40802508318C401F21AD01FB
:102410004519C0180A40D8302E602C600260002098
:10242000F0BD4D006C18E400041926008027C83662
:102430007F023760C0273F03B760F82704367F026A
:10244000DC3437602360CDE7D010000001010101CA
:1024500010B583070AD00300032102E001330B42C9
:1024600005D01A78002AF9D1181A10BD030019688E
:102470000C4A0D4C8A188A4322420FD15968094AE6
:1024800004338A188A43224208D15968054A043322
:102490008A188A432242F1D000E001331A78002AD8
:1024A000FBD1E1E7FFFEFEFE80808080F8B5C046EC
:1024B00001B40248844601BC604700BF5D010020B2
:1024C00001B40248844601BC604700BF850100207A
:1024D00001B40248844601BC604700BFC10000202F
:1024E000E51A0010111B00105D1C0010ED1E0010FD
:1024F000151D0010911E0010851B00102D1B0010D3
:102500004D1B0010611B0010C10F0010691B001053
:102510003D130010AD1A0010990A0010B10200100E
:102520002825001004FF000021632312001242A29C
:102530000A2A2A2A2050414E4943202A2A2A0A00E0
:102540000A000000486172647761726520616C6105
:10255000726D20256420616C726561647920636C02
:1025600061696D6564000000486172642061737385
:10257000657274006D697373696E6720646F75624C
:102580006C652066756E6374696F6E0000000000F4
:1025900052656C6561736500626F6F74325F77328C
:1025A0003571303830000000302E3100322E312E9F
:1025B000300000007069636F5F77000030613900A0
:1025C00046656220203120323032350006005250FC
:1025D000D3F075429025001006005250E182887FAA
:1025E00098250010060052503ABCA911A8250010E9
:1025F00006005250ABB36053AC2500100600525099
:10260000BBFF3CB6B425001006005250861C0302E6
:10261000BC250010060052505422A29DC025001077
:1026200005005250DE65F468A82B00100D0A00006A
:10263000CC250010D8250010E4250010F02500104E
:10264000FC2500100826001014260010202600107B
:10265000F0B5C646150000B504001E000268EFF391
:10266000108172B61368002BFCD0BFF35F8F042378
:10267000E356002B2DDB2268BFF35F8F0020106034
:1026800081F31088D0221206127852B290469A42F4
:1026900003D1002080BCB846F0BD00270BE02368C2
:1026A000BFF35F8F1F6081F310882800310000F0B6
:1026B00033F80028EDD12268EFF3108172B6136869
:1026C000002BFCD0BFF35F8F23797F2BE7D94346E4
:1026D00002E0D0231B061B6823712368BFF35F8FC2
:1026E00000221A6081F310880120D3E70268EFF31B
:1026F000108172B61368002BFCD0BFF35F8FFF23ED
:1027000003710368BFF35F8F00221A6081F31088A2
:1027100040BF70477047C04601B40248844601BCC0
:10272000604700BF451500100100000001000000D7
:102730000100000001000000010000000100000095
:102740000000000000000000000000000100000088
:102750000100000000000000000000000000000078
:102760000100000001000000000000000000000067
:102770000000000001000000010000000100000056
:102780000100000001000000010000000000000046
:102790000000000001000000000000000000000038
:1027A0000000000001000000010000000000000027
:1027B0000000000000000000000000000100000018
:1027C0000000000000000000000000000000000009
:1027D00001000000000000000000000000000000F8
:1027E00001000000010000000100000000000000E6
:1027F00001000000010000000100000001000000D5
:1028000001000000000000000000000000000000C7
:1028100000000000010000000100000001000000B5
:1028200001000000010000000100000001000000A4
:102830000000000000000000000000000000000098
:102840000100000001000000010000000100000084
:102850000100000001000000010000000100000074
:102860000100000001000000000000000000000066
:102870000000000000000000010000000000000057
:102880000100000001000000010000000100000044
:102890000000000000000000000000000000000038
:1028A0000100000001000000010000000100000024
:1028B0000100000001000000000000000100000015
:1028C0000000000000000000010000000100000006
:1028D00000000000000000000100000000000000F7
:1028E00001000000010000000100000001000000E4
:1028F00001000000000000000000000000000000D7
:1029000001000000000000000000000001000000C5
:1029100000000000000000000000000001000000B6
:1029200001000000010000000100000001000000A3
:102930000100000000000000000000000000000096
:102940000000000001000000010000000100000084
:102950000100000001000000000000000000000075
:102960000000000000000000010000000100000065
:102970000100000001000000010000000100000053
:102980000100000001000000010000000100000043
:102990000100000001000000000000000000000035
:1029A0000000000000000000010000000100000025
:1029B0000100000001000000010000000100000013
:1029C0000000000000000000000000000100000006
:1029D00001000000010000000100000001000000F3
:1029E00001000000010000000100000001000000E3
:1029F00001000000010000000000000000000000D5
:102A000000000000000000000100000000000000C5
:102A100001000000000000000000000000000000B5
:102A200000000000000000000100000000000000A5
:102A30000000000000000000000000000000000096
:102A40000100000000000000010000000100000083
:102A50000100000001000000010000000100000072
:102A60000000000000000000000000000100000065
:102A70000100000001000000010000000100000052
:102A80000100000001000000000000000000000044
:102A90000000000001000000010000000100000033
:102AA0000100000001000000010000000100000022
:102AB0000100000001000000010000000100000012
:102AC0000100000000000000000000000000000005
:102AD00001000000010000000100000001000000F2
:102AE00001000000010000000000000000000000E4
:102AF00000000000000000000100000001000000D4
:102B000001000000010000000100000001000000C1
:102B10000000205010000000000000000000010034
:102B200000000000000000000000020000000000A3
:102B30000000000000000300000000000000000092
:102B40000000FF000000000001B5486801318E461A
:102B50000047704609380149884701BDFD0E001045
:102B60000000000000000000000000000000000065
:102B700000000000300600200000000000000000FF
:102B8000503300004C330000543300005233000037
:102B90004D5300004D430000533400004334000007
:082BA00000000000000000002D
:04000005100001E9FD
:00000001FF
